:100000000C94C8010C94F2090C940F020C940F028A
:100010000C940F020C940F020C940F020C940F021C
:100020000C940F020C940F020C94761C0C94481D37
:100030000C945F170C940F020C940F020C940F0297
:100040000C940F020C940F020C940F020C940F02EC
:100050000C940F020C94C7170C940F020C940F020F
:100060000C940F020C940F020C940F020C940F02CC
:100070000C940F020C940F020C940F020C940F02BC
:100080000C940F020C940F020C940F020C940F02AC
:100090000C940F020C940F020C940F020C940F029C
:1000A0000C940F020C940F020C940F02970D970DF5
:1000B000C90DC90D160E540F540F540F360ED30E22
:1000C000E40EE40E440F540F540F4D0FD20FD20F15
:1000D000E40FE40FDB0FE40FE40FE40FD20FD20FB5
:1000E000E00FE40FE40FE00FB51DDC1DCE1EDC1D9C
:1000F000CE1E281E4B1ECE1EA11EB01E29001E00A5
:100100001F0020002100220023002B0014001A00F1
:100110000800150017000A00E000E00004001600C7
:10012000070009000500E100E1001D001B000600BA
:100130001900380002510151E000E200E3002C00F8
:100140002C002A002E002D00270026002500240068
:1001500030002F00130012000C0018001C002800B3
:10016000340033000F000E000D000B00E5005200BC
:10017000370036001000110031004F0051005000D0
:100180000251E600E7002C003500BE00BD00000073
:10019000000000000000000000000000000000005F
:1001A000000000000100010000000000000000004D
:1001B000000001000100000000000000000000003D
:1001C0000100010001000100010000000000B0007A
:1001D000800081007F00BB00AE00BC003100000049
:1001E000000000000000000000000000000000000F
:1001F00000000000000000000100000038000000C6
:1002000000000000000000000000000001000100EC
:100210000100000045003A003B003C003D003E006C
:1002200000000000000000000000000000000000CE
:1002300001000100000000000000000000000100BB
:1002400001000000000000000000000001000100AB
:1002500000000000000000000000440043004200D5
:10026000410040003F00000031000000000000009D
:10027000000000000000000000000000000000007E
:100280000000000001000000380000000000000035
:10029000000000000000000001000100010000005B
:1002A00004033000000012034500720067006F0075
:1002B000440061007300680000000C034F006D00F3
:1002C0006B006200640000000403090409023B00A3
:1002D000020100A0FA090400000103010100092144
:1002E000110100012240000705810308000A0904EA
:1002F0000100010300000009211101000122360064
:100300000705820320000A1201100100000008ED19
:10031000FE606000010102030105010980A1018561
:10032000031A81002A830016010026030095017537
:10033000108100C0050C0901A10185041A01002AE1
:100340009C02160100269C02950175108100C005D3
:10035000010906A101050719E029E7150025019506
:1003600008750181029501750881010507190029A9
:10037000FF150026FF009506750881000508190184
:100380002905950575019102950175039101C0003C
:1003900011241FBECFEFDAE0DEBFCDBF04B603FEEF
:1003A00027C08091F7019091F801A091F901B091D7
:1003B000FA018730904BA740B04BD1F41092F7016F
:1003C0001092F8011092F9011092FA0114BE84B74C
:1003D000877F84BF0FB6F894A895809160008861EC
:1003E00080936000109260000FBEE0E0F8E3099592
:1003F00011E0A0E0B1E0E8E9FEE302C005900D9253
:10040000A832B107D9F721E0A8E2B1E001C01D92FE
:10041000A73FB207E1F70E949A190C944A1F0C9467
:1004200000000C94D106089581E0089581E00895BC
:100430000C9416021F93CF93DF9300D000D01F922D
:10044000CDB7DEB749835A8320915A0189819A81B9
:10045000211112C0662349F00E94F714182F682F4B
:1004600089819A810E949C1403C00E94CB14182F8A
:1004700069817A81812F04C00E94F71469817A8191
:100480000F900F900F900F900F90DF91CF911F91D1
:100490000C942B04FC014081518162817381848121
:1004A0000C941A020E942716811102C00E94C716DE
:1004B0000C9411020C94D30608950C945C020C94D5
:1004C0005D020E94C20F0E9413022FEF84E39CE0A2
:1004D000215080409040E1F700C0000087E797E797
:1004E00090930108809300080C94ED170F931F93CD
:1004F000CF93DF938C010E944A02EC01B8010E9465
:100500001802882309F49DC1B801CE010E94FB089E
:10051000882309F496C1C631FCE5DF0739F50E944E
:100520007715282FF80182814091090150910A0125
:10053000882379F02A7A91E009F490E090932801D9
:10054000911102C069E201C065E3CA010E9400176F
:100550000AC080912801811102C069E201C065E3EF
:10056000CA010E9402170E94C3156BC1C7318CE5F6
:10057000D80708F03BC1C130ECE5DE0771F4F801A3
:100580008281882309F45DC18091D501982F9095CF
:1005900090FB80F98093D50154C1C230FCE5DF07A0
:1005A00008F413C1F8018281882309F411C10E9463
:1005B0002716811102C00E94C7160E943A16909316
:1005C000E9018093E801C031FCE5DF0709F4BFC011
:1005D00008F03FC0C830ECE5DE0709F496C0F0F43F
:1005E000C4308CE5D80709F483C068F4C230FCE558
:1005F000DF0709F473C0C330DC4509F0DDC080912A
:10060000E801826072C0C630ECE5DE0709F46AC01A
:1006100008F077C08091E801886067C0CC308CE535
:10062000D80709F481C058F4CA30FCE5DF0709F4A3
:1006300070C008F075C08091E801806856C0CE3067
:10064000ECE5DE0709F474C008F07DC08091E80194
:1006500089C0CB3F8CE5D80709F44DC008F5C331FC
:10066000FCE5DF0709F47BC068F4C131ECE5DE0787
:1006700009F471C0C231DC4509F09EC08091E801E7
:100680008F7733C0C5318CE5D80709F472C008F400
:1006900086C0CA3FDC4509F08FC08091E9013EC0A9
:1006A000CF3F8CE5D80709F45FC058F4CD3FFCE597
:1006B000DF0709F444C008F43FC08091E90182607B
:1006C0002DC0C130EDE5DE0709F473C008F45DC04C
:1006D000C230DD4509F070C080E06CC08091E80157
:1006E000816003C08091E80180618093E80164C06B
:1006F0008091E80111C08091E90182608093E90155
:100700005BC08091E8018062F0CF8091E801806455
:10071000ECCF8091E80188608460E7CF8160EECF04
:100720008091E8018E7FE1CF8091E8018D7FDDCF60
:100730008091E801877FD9CF8091E90118C080912D
:10074000E9018D7FDBCF8091E8018F7ECECF809154
:10075000E8018F7DCACF8091E8018F7BC6CF809161
:10076000E801877F8B7FC1CF8091E9018D7F8E7FEC
:10077000C5CF8091E80182FB222720F991E09227E2
:1007800090FB82F990FB83F9B0CF8091E901982F1B
:10079000909591708E7F892B90FB81F9AFCF8091DE
:1007A000E80187FB222720F991E0922790FB87F947
:1007B0009CCF81E00E94C9168091E8019091E901E7
:1007C0000E944B160E94C20F3CC0C115DC4539F097
:1007D000C801DF91CF911F910F910C941402F80181
:1007E0008281882371F10E9461022BC0CE3DECE52D
:1007F000DE0739F4F8018281882319F10E94C716B7
:1008000020C0CF3DFCE5DF07A8F4CC3D8CE5D80740
:1008100031F4F80182818823A1F080E008C0CD3D49
:10082000DC45B1F6F8018281882359F082E00E940C
:10083000391A07C0CE018A5F9C45099708F4B2CEE9
:10084000C7CF80E0DF91CF911F910F91089580E095
:1008500090E00895089597E0799FF001112496E4BF
:10086000899FE00DF11D1124E60FF11DEE0FFF1F12
:10087000E450FF4F859194910895880F991FFC01D2
:10088000E056FD4F859194910895CF93DF930E9498
:100890002B040E94FA05EC01811520E59207F0F582
:1008A000811530E4930708F024C1883E910500F5D6
:1008B000803E910508F09AC1883A910570F4853A16
:1008C000910508F09FC08130910509F48FC108F4AB
:1008D00040C1049708F08AC13CC18F3B910508F4E0
:1008E0009CC0803C910508F434C1805C9109F4C03F
:1008F000811540E2940758F4C11581E0D80708F04B
:1009000075C1C03FD10508F424C1D0656FC1811500
:1009100020E3920708F0E4C09F70DEC0811535E542
:10092000930708F044C0811544E5940708F0F8C027
:10093000C11582E5D80708F5C11521E5D20708F0F1
:10094000DBC08C2F837021E030E002C0220F331F08
:100950008A95E2F73C68CE0174E0969587957A9582
:10096000E1F78370382BCF70C695C69580E2C89F9B
:10097000E0011124C22BD32B39C12C2F26952695AB
:10098000CE0183709927C115D34508F0BAC040E263
:10099000249F90011124C1E0D0E002C0CC0FDD1FE4
:1009A0008A95E2F72C2B3D2BE901DC681FC18115EC
:1009B00049E59407A0F4C11588E5D80708F0B5C04B
:1009C000C11526E5D20708F0C4C08C2F0E948E0600
:1009D0008F71C82FD0E0DC2FCC27D06207C18115E2
:1009E0003AE5930708F4A6C090568115904208F0A6
:1009F000B0C08D2F8F710E948E06DD27D0628F715F
:100A0000D82BF4C0853A910509F4A6C0863A910521
:100A100009F0A5C0C2E8D0E4E9C0883A910509F41C
:100A2000A1C0893A910509F4A0C08A3A910509F458
:100A30009FC08B3A910509F49EC08C3A910509F448
:100A40009DC08B3B910509F49CC08C3B910509F43A
:100A50009BC08D3A910509F49AC0803B910509F439
:100A600099C08E3A910509F498C08F3A910509F41E
:100A700097C0813B910509F496C0823B910509F42A
:100A800095C0833B910509F494C0843B910509F41A
:100A900093C0853B910509F492C0863B910509F40A
:100AA00091C0873B910509F490C0883B910509F4FA
:100AB0008FC0893B910509F48EC08D3B910509F4E7
:100AC0008DC08E3B910509F48CC08A3B910509F4D9
:100AD0008BC0C0E0D4E48AC00E943D04EC0186C013
:100AE0009927D3FF03C0EC01D86C80C0EC01D06C17
:100AF0007DC0DF70D06A7AC0DC2FCC27C16FD06A8E
:100B000075C040E2249F90011124C1E0D0E002C0F2
:100B1000CC0FDD1F8A95E2F7C22BD32BDA6866C0B3
:100B2000D82FCC27C46FD06A61C0DC2FCC27C06F10
:100B3000D06A5CC08F700E948E0694E0D695C795EF
:100B40009A95E1F7CF70D0E0DC2FCC27D069C82B85
:100B50004DC0C0E0D0E04AC0C1E8D0E447C0C3E81F
:100B6000D0E444C0C2EED4E441C0C9EED4E43EC0F7
:100B7000CAEED4E43BC0C5EBD4E438C0C6EBD4E441
:100B800035C0C3EBD4E432C0C4EBD4E42FC0C7EB10
:100B9000D4E42CC0CCECD4E429C0CDECD4E426C001
:100BA000C3E8D5E423C0CAE8D5E420C0C2E9D5E44F
:100BB0001DC0C4E9D5E41AC0C1E2D6E417C0C3E23F
:100BC000D6E414C0C4E2D6E411C0C5E2D6E40EC037
:100BD000C6E2D6E40BC0C7E2D6E408C0CFE6D4E450
:100BE00005C0C0E7D4E402C0CAE2D6E4CE01DF917A
:100BF000CF9108958238910569F1B0F48133910560
:100C000009F46DC048F48932910509F463C08A3251
:100C1000910509F469C008958533910509F455C01B
:100C200089339105B9F00895833E910569F138F44F
:100C3000803E9105B1F0823E910509F10895863E0E
:100C40009105A9F1873E9105B9F1843E910509F01E
:100C500064C023C02091E80120FD4FC021FD4DC09C
:100C600008958091E80180FD44C08091E90180FFF2
:100C700044C08091E80184FD42C083EE4DC0809164
:100C8000E80182FF38C0F5CF8091E80182FD33C0D2
:100C90008091E90180FD31C0ECCF8091E90181FFB5
:100CA00032C08091E80184FD2AC087EE35C0809172
:100CB000E80183FF26C0F5CF8091E80183FD21C0C4
:100CC0008091E90181FD1FC0ECCF8091E80185FD95
:100CD0001CC01DC08091E80185FD19C016C080911F
:100CE000E80186FD16C017C08091E80186FD13C09B
:100CF00010C089E311C082EE0FC080EE0DC080E00D
:100D00000BC086EE09C084EE07C089E205C085E30A
:100D100003C08AE201C081E390E008959091E80168
:100D200092FF0DC0282F2871283019F4877F846026
:100D300006C0282F2471243011F48B7F886093FF24
:100D40000DC0282F2871283119F4877E846106C0D0
:100D5000282F2471243111F48B7E88612091E901C0
:100D600020FF0DC0382F3871383019F4877F81602B
:100D700006C0382F3171313011F48E7F886021FF29
:100D80000DC0282F2871283119F4877E816106C093
:100D9000282F2171213111F48E7E886194FD877E88
:100DA0000895089508950C94D2060895E82FF0E070
:100DB000E15DFE4F8081089508950E944D08809165
:100DC000000180910001811102C095E001C090E016
:100DD0009093E30185E0891B8093E201ADE1B1E0EE
:100DE00041E050E025E02A0F8D91E82FE295EF7069
:100DF000F0E031A18F70BA0102C0660F771F8A95AB
:100E0000E2F7CB01962F9095932391A392A1892B82
:100E100082A32A13E9CFA6E1B1E041E050E027E048
:100E20002A0F8D91E82FE295EF70F0E031A18F70DD
:100E3000BA0102C0660F771F8A95E2F7CB01962FA1
:100E40009095932391A392A1892B82A32A13E9CF92
:100E5000EFE2F1E08AE08E0F11928E13FDCF85E074
:100E60000E94F7070C9452027F928F929F92AF924A
:100E7000BF92CF92DF92EF92FF920F931F93CF9387
:100E8000DF936DE171E0AAE2B1E0812C01E010E0B6
:100E900095E09A0F7D017C901C92EB018991BE0137
:100EA000E82FE295EF70F0E021A18F70A80101C05A
:100EB000440F8A95EAF7822F842B81A322A1842FE5
:100EC0008095282322A3D0EADA95F1F7C6E1AC2E6B
:100ED000C1E0BC2E20E030E0E50199905E01C92C14
:100EE000C2945FE0C522D12CE601C8A0D12CD92D37
:100EF000DF7002C0D594C794DA95E2F7C0FC07C052
:100F00006801022E01C0CC0C0A94EAF702C0C12C81
:100F1000D12CDC90CD28CC922F5F3F4F273031056C
:100F2000D9F621A1822381A382A1482B42A3119645
:100F300081E0F7012081721201C080E0882A9A13B3
:100F4000A9CF6091E30170E0615D7E4F282D45E0FF
:100F50008AE291E00E94F807882DDF91CF911F91DE
:100F60000F91FF90EF90DF90CF90BF90AF909F9048
:100F70008F907F900895CF930E943407C82F0E94CE
:100F80002E08882339F12091E201822F90E0815DC3
:100F90009E4F0E946408811118C0909129019F5FA3
:100FA00090932901963098F04091E20120E030E0E2
:100FB00050E0F901E40FF51FE15DFE4F10822F5F55
:100FC0003F4F25303105A9F702C0109229010E9438
:100FD0005A020AC02091E301822F90E0815D9E4F6A
:100FE0000E947F080E94D5068C2FCF910895089506
:100FF000FF920F931F93CF93DF938C01F62ED72F81
:10100000C42F222349F081E080933B010E94911775
:1010100090933A018093390180913B018823C1F07C
:101020008091390190913A010E949D17069780F0B6
:10103000EF2DFD2FD8014C2F50E0CD01801B910BDF
:10104000841795071CF48D918193F7CF10923B0183
:10105000DF91CF911F910F91FF90089580913C01F6
:10106000811112C08091D80080618093D8008AE1FC
:101070008A95F1F700C08091D90080FD02C082E01E
:1010800001C081E080933C0181E090913C0191306E
:1010900009F080E008950C942E080E944B0880937C
:1010A00000010E942E0881110C9458080C945E08CF
:1010B00061E070E081E091E00C94970961E070E0FC
:1010C00081E091E00C94A009CF93DF93D82FC92F32
:1010D0000E94430A892B79F4ED2FFC2F80E090E0E9
:1010E000DC01A25CBE4F2C912193019685309105C5
:1010F000B9F781E001C080E0DF91CF91089520E051
:1011000030E0FC014191CF01F901E25CFE4F4083E8
:101110002F5F3F4F25303105A1F708950F931F939F
:10112000CF93DF93C62FD42F022FFC018281882317
:10113000C9F0609345010E949117909344018093F8
:10114000430180E28C0F883008F050C0C77081E006
:1011500001C0880FCA95EAF7DF91CF911F910F91D7
:101160000C94570D10914501161330C08091430126
:10117000909144010E949D178837910538F5C0E28F
:10118000CD0F1D17B9F080E2810F883040F4177041
:1011900081E001C0880F1A95EAF70E945E0DC83001
:1011A00048F481E09D2F977001C0880F9A95EAF767
:1011B0000E94570D802F0E94440DC830B8F4D7709C
:1011C00081E001C0880FDA95EAF70AC080E28C0F4F
:1011D000883060F4C77081E001C0880FCA95EAF7D3
:1011E000DF91CF911F910F910C945E0DDF91CF9104
:1011F0001F910F9108959C01CB01233F4CE53407CB
:10120000F9F078F4283DFCE53F07B9F0293D4CE5BD
:10121000340711F1273D3C4531F526E241EE61EE00
:101220001EC0253FFCE53F0799F070F0263F3C4586
:10123000D1F427E245EE66EE12C027E245EE0EC07D
:1012400026E241EE60EE0BC027E245EE64EE07C0F9
:1012500026E241EE62EE03C028E241E065EE0E9424
:101260008E0880E00895FC018281882319F0109295
:101270004501089581E008958EE1489B02C08150A8
:10128000E1F7489BFECF0895589880E28A95F1F7E0
:10129000589A0895FC013AE03A95F1F798E020E079
:1012A00080E031E040E14A95F1F7880F489B02C0A9
:1012B0008160232700C0000040E14A95F1F791507A
:1012C00089F790E19A95F1F799B100C0000030E1FB
:1012D0003A95F1F7917092272081920F90830895AB
:1012E000FF920F931F93CF93DF9300D0CDB7DEB75C
:1012F0001982F82E8C01802F8F19861760F46A836B
:101300000E943C09CE0101960E944A09F80181938E
:101310008F016A81F0CF81E09981911180E00F9077
:101320000F90DF91CF911F910F91FF9008959093AF
:1013300048018093470160934601509A589A089556
:101340009093480180934701609346015098589AC2
:10135000E89AE9E6F0E080818C7F8083089561500F
:1013600091E001C0990F6A95EAF720E031E09923F6
:1013700061F0492F482319F0589A232701C0589843
:1013800040E24A95F1F79695F2CF222311F0589A50
:1013900001C0589880E28A95F1F758980895EF9225
:1013A000FF920F931F93CF93DF931F92CDB7DEB7BA
:1013B000162F082F7C018E2D801B811758F4F70102
:1013C00081917F0189830E94440968E089810E949C
:1013D000AF09F1CF0F90DF91CF911F910F91FF9047
:1013E000EF9008951F920F920FB60F9211242F9332
:1013F0003F934F935F936F937F938F939F93AF939D
:10140000BF93CF93DF93EF93FF935898509AC09177
:101410004701D09148016D81662321F08E819F8123
:101420000E94CF090E94440980E18A95F1F75898FB
:101430005098589A80E18A95F1F76A81662351F0B5
:101440008B819C810E947009E881F981811104C01F
:1014500082E003C0E881F98188E080830E943C0932
:10146000FF91EF91DF91CF91BF91AF919F918F91BC
:101470007F916F915F914F913F912F910F900FBE90
:101480000F901F901895CF93DF93C0914701D09193
:101490004801F894509A589885E08A95F1F7000031
:1014A0005098589A80E28A95F1F7489B0AC0509A62
:1014B000589AE881F98181E08083789481E090E016
:1014C0002CC06D81662381F08E819F810E947009FE
:1014D00081110AC0509A589AE881F98182E080838C
:1014E000789482E090E019C00E943C0980E28A95DD
:1014F000F1F75898509A80E18A95F1F76A8166234E
:1015000021F08B819C810E94CF090E944409E881CF
:10151000F9811082789480E090E0DF91CF91089576
:1015200090934E0180934D010895E0914D01F0910B
:101530004E01309721F00190F081E02D099480E078
:101540000895E0914D01F0914E01309721F0028015
:10155000F381E02D0994089520914B0130914C01C5
:101560008217930771F090934C0180934B01E091A7
:101570004D01F0914E01309721F00680F781E02D6A
:10158000099408952091490130914A0182179307E7
:1015900071F090934A0180934901E0914D01F091DF
:1015A0004E01309721F00084F185E02D09940895D3
:1015B00085B7806885BF85B7806885BF0895089521
:1015C00008950C94E00A08950C94E30A0E94D80A46
:1015D0000E94DF0A0C94E10A0E9488170E94DD062F
:1015E0000E94FE170C94E40ACF92DF92EF92FF92D2
:1015F0000F931F93CF93DF93CDB7DEB72B970FB623
:10160000F894DEBF0FBECDBF0E94BB070E942E081C
:10161000811111C08FEF89838A831B820E949117E9
:101620008160782F9D838C8349815A816B818D8164
:101630000E949A0B56C080E5C82E81E0D82E00E0AB
:1016400010E0E02E802F0E94D606F60141916F0136
:10165000F42EF82631F40F5F1F4F0A30110589F779
:10166000D9CF9091D50191FF04C08B870E94DC06F1
:101670008B8520E030E04F2D50E0922FBA01022EF2
:1016800002C0759567950A94E2F760FF24C02E8327
:10169000EF8221E030E0690102C0CC0CDD1C9A959C
:1016A000E2F790E08C219D21892B09F420E0288726
:1016B0000E9491178160782F9A8789874E815F8178
:1016C00068858A850E949A0BF801E05BFE4F808155
:1016D000C826C08206C02F5F3F4F2730310569F60C
:1016E000BACF10914F010E94950A1817A1F00E94DD
:1016F000950A80934F012B960FB6F894DEBF0FBE6C
:10170000CDBFDF91CF911F910F91FF90EF90DF90B0
:10171000CF900C945F022B960FB6F894DEBF0FBEED
:10172000CDBFDF91CF911F910F91FF90EF90DF9090
:10173000CF900895CF93DF93CDB7DEB72B970FB639
:10174000F894DEBF0FBECDBF4F83588769877A8775
:101750008B87DE01119686E0FD0111928A95E9F7EB
:1017600085E0FE01379601900D928A95E1F7498157
:101770005A816B817C818D819E810E946C122B9697
:101780000FB6F894DEBF0FBECDBFDF91CF910895A5
:10179000FC01808191810E9438150895882309F405
:1017A00013C1682F8238C1F40E94950A81FD0CC1D3
:1017B00069E38091090190910A010E9400170E943B
:1017C000C3152FEF81EE94E0215080409040E1F767
:1017D00000C0000069E319C08338F9F40E94950A3B
:1017E00080FDF2C063E58091090190910A010E9499
:1017F00000170E94C3152FEF81EE94E02150804026
:101800009040E1F700C0000063E5809109019091EC
:101810000A010E9402170C94C3158438C1F40E9477
:10182000950A82FDD1C067E48091090190910A0177
:101830000E9400170E94C3152FEF81EE94E0215003
:1018400080409040E1F700C0000067E4DECF8CEFFD
:10185000860F813A38F48091090190910A010E9423
:101860000017D9CF80E2860F883048F4677081E096
:1018700001C0880F6A95EAF70E947A15CCCF8BE5F4
:10188000860F833070F4653A29F0663A31F083E8C8
:1018900090E005C081E890E002C082E890E00C94FE
:1018A000AC0A88E5860F873108F08EC0683A09F4E3
:1018B00045C0693A09F445C06A3A09F445C06B3A33
:1018C00009F445C06C3A09F445C06B3B09F445C0C6
:1018D0006C3B09F445C06D3A09F445C0603B09F41E
:1018E00045C06E3A09F445C06F3A09F445C0613B02
:1018F00009F445C0623B09F445C0633B09F445C0A7
:10190000643B09F445C0653B09F445C0663B09F4F6
:1019100045C0673B09F445C0683B09F445C0693BD5
:1019200009F445C06D3B09F445C06E3B09F445C060
:101930006A3B09F445C080E090E044C082EE90E04C
:1019400041C089EE90E03EC08AEE90E03BC085EB5E
:1019500090E038C086EB90E035C083EB90E032C079
:1019600084EB90E02FC087EB90E02CC08CEC90E0F3
:1019700029C08DEC90E026C083E891E023C08AE87E
:1019800091E020C082E991E01DC084E991E01AC095
:1019900081E292E017C083E292E014C084E292E018
:1019A00011C085E292E00EC086E292E00BC087E2B1
:1019B00092E008C08FE690E005C080E790E002C0AA
:1019C0008AE292E00C94C20A0895882309F45BC06D
:1019D000682F823879F40E94950A81FF54C069E328
:1019E0008091090190910A010E9400170E94C3157D
:1019F00069E310C08338B1F40E94950A80FF43C0A8
:101A000063E58091090190910A010E9400170E94EC
:101A1000C31563E58091090190910A010E940217A4
:101A20000C94C315843879F40E94950A82FF2BC068
:101A300067E48091090190910A010E9400170E94B9
:101A4000C31567E4E7CF8CEF860F813A18F380E285
:101A5000860F883048F4677081E001C0880F6A956E
:101A6000EAF70E948015DCCF8BE5860F833020F4E7
:101A700080E090E00C94AC0A685A673120F480E072
:101A800090E00C94C20A0895CF93C82F0E94CE0B09
:101A9000C93349F42FEF87EE93E021508040904006
:101AA000E1F700C000008C2FCF910C94E50C882347
:101AB00021F00E947A150C94C3150895882321F013
:101AC0000E9480150C94C3150895BF92CF92DF92A7
:101AD000EF92FF920F931F93CF93DF937C01062F1A
:101AE000C72FFC01158112951F70D281D1110E9460
:101AF00097150E947015882379F0DD2369F080E244
:101B0000800F883048F082E00E940E160E94701507
:101B100091E0B82EB92601C0B12CCC2EC2948FE032
:101B2000C822D12CF601EA5AFF4F0C94021F8C2FC9
:101B3000807FCF70882311F0C295C07FDD2399F09C
:101B4000CC2309F48CC180E2800F883010F00111A1
:101B500004C08C2F0E947A1503C08C2F0E948A1516
:101B60000E94C3157CC1802F0E94E50CCC2309F490
:101B70009BC180E2800F883010F0011104C08C2FCF
:101B80000E94801503C08C2F0E9490150E94C315DF
:101B90008BC18C2F807FCF70803211F0C295C07FB7
:101BA000002319F00130C9F022C0DD2371F01123A8
:101BB00041F0113031F40E94AA158C2B0E94B0150F
:101BC00073C10E94AA158C2B1DC0112319F011306E
:101BD00009F46AC10E94B91525C0DD2321F0163031
:101BE00008F062C10EC0153008F05EC11BC0DD23D5
:101BF00061F0112331F0F701858180FF30C18F70D2
:101C000085838C2F0E94570D4FC1112359F0093342
:101C100009F036C1FFEF27EE83E0F150204080400D
:101C2000E1F72CC18C2F0E945E0D3EC18C2F869552
:101C30008695837090E0009719F0019761F034C1A8
:101C4000DD2321F0802F9C2F937002C080E090E074
:101C50000E94AC0A34C1DD2321F0802F9C2F9370A9
:101C600002C080E090E00E94C20A29C18C2F8370DC
:101C700009F049C0D1111FC1402F429546954770C8
:101C8000440F440F602F6F70862F90E0A0E0B0E00B
:101C9000042E04C0880F991FAA1FBB1F0A94D2F7F5
:101CA00004FF10C00FE010E020E030E004C0000F9F
:101CB000111F221F331F4A95D2F7009510952095CA
:101CC000309503C000E010E09801C695C695C3703A
:101CD000D0E0BC01CD01602B712B822B932BC23045
:101CE000D10559F0C330D10559F0219719F00E9460
:101CF000B113E1C00E949F13DEC00E94C313DBC07A
:101D00000E949D13D8C0DD2319F08C2F817001C073
:101D10008695882309F4CFC0402F42954695477099
:101D2000440F440F602F6F70862F90E0A0E0B0E06A
:101D3000042E04C0880F991FAA1FBB1F0A94D2F754
:101D400004FF10C00FE010E020E030E004C0000FFE
:101D5000111F221F331F4A95D2F700951095209529
:101D6000309503C000E010E09801C695C695C37099
:101D7000D0E0BC01CD01602B712B822B932BC230A4
:101D8000D10559F0C330D10559F0219719F00E94BF
:101D9000771491C00E9465148EC00E9489148BC074
:101DA0000E94D81388C0CF70DD2339F08C2F0E9499
:101DB000FE13802F0E94570D7EC0802F0E945E0D63
:101DC0008C2F0E941F1477C0023F01F128F4003FBE
:101DD00041F0013FA1F03FC0033FF9F0043F39F16A
:101DE0003AC0DD2341F0153008F05EC08C2F8F71B2
:101DF0000E94441459C0163008F056C0F7CFDD23B6
:101E000039F08C2F8F710E94FE134EC0DD23C9F371
:101E10008C2F8F710E941F1447C0DD2329F08C2F57
:101E20008F710E94E91340C00E94E4133DC0DD237E
:101E300049F0CF718C2F0E94FE1363E08C2F0E941B
:101E4000F91532C081E00E940E16123068F182E06E
:101E50000E940E1629C0DD2331F0112391F2802F4C
:101E60000E94CE0B21C0112399F2093349F49FEF50
:101E7000E7EEF3E09150E040F040E1F700C00000F1
:101E8000802F0E94E50C10C04C2F4F70602FC701AF
:101E90000E9427040E94101312C04C2F4F70602F15
:101EA000C7010E942A040BC028E0C21AD10884E0AE
:101EB000C816D10420F40E94950A0E945F02BB203C
:101EC000D1F00E946C1580FD16C0F70112820E94AD
:101ED00066150E94FE13C7010E94850F0E946615B9
:101EE000DF91CF911F910F91FF90EF90DF90CF90F6
:101EF000BF900C941F14DF91CF911F910F91FF9011
:101F0000EF90DF90CF90BF9008950F931F93CF93E2
:101F1000DF93EC01888199812B813C81232BB9F0DF
:101F20009F3F11F48F3F99F0CE010E9476028823E3
:101F300071F0688179818A810E9443158C010E9429
:101F40009B140E949C13B801CE010E94650DDF9185
:101F5000CF911F910F9108950E9497150E94A71588
:101F60000E94C31580E090E00E94AC0A80E090E0FF
:101F70000C94C20A8091090190910A010E940417F1
:101F80000C94AC0F0E9487150C94BA0FE92FE295C0
:101F9000EF70F0E03297EE30F105B0F4EA59FF4F00
:101FA0000C94021F803F91F018F4883E68F40EC034
:101FB000843F51F40BC0883E48F0813F29F406C0AD
:101FC00093FB882780F9089580E0089581E00895C3
:101FD0000E9438150E94C60F0895CF93DF9300D05A
:101FE00000D01F92CDB7DEB70F900F900F900F90DB
:101FF0000F90DF91CF910895CF93DF9300D000D061
:1020000000D0CDB7DEB726960FB6F894DEBF0FBE70
:10201000CDBFDF91CF9108951F93CF93DF93C091F0
:102020005B0116E080915C01C81799F0D0E01C9F1D
:10203000F0011D9FF00D1124E35AFE4F40815181A4
:1020400062817381848195810E94FC0F2196C77003
:10205000E9CFDF91CF911F91089540918D0150916B
:102060008E0160918F01709190018091910190910A
:1020700092010C94FC0F8091920182958F7009F06F
:1020800054C080918F01882309F44FC080915B0177
:10209000A0915C0160918D0170918E014091900141
:1020A00050919101B6E08A1709F43FC090E04115C4
:1020B0005105C1F17F3F11F46F3FA1F1B89FF001CD
:1020C000B99FF00D1124E35AFE4F218172132AC0EB
:1020D0002081621327C02281211124C023813481F1
:1020E0002417350710F421503109241B350B2837EC
:1020F0003105C0F4209192012F702061209392014C
:1021000026E0289FF001299FF00D1124EE59FE4F83
:1021100080818F70806180838DE891E00E94850FBF
:102120000C940C1001968770BECF0895CF92DF9269
:10213000EF92FF920F931F93CF93DF93CDB7DEB74C
:1021400062970FB6F894DEBF0FBECDBF8C0185E05D
:10215000F801DE011D9601900D928A95E1F7D801F4
:102160004C9111965C91119712966C91129713965F
:10217000CD90DC90149730918D0170918E018091FB
:10218000900190919101009709F46BC17F3F19F480
:102190003F3F09F466C1E0908F01EE2009F4C0C012
:1021A00020919201C816D90628F0F601E81BF90B18
:1021B000CF0104C0809590958C0D9D1DFF24F39454
:1021C0008837910578F0F12C207F09F0C6C07C2D6E
:1021D000D98AC88A89890E94ED0F8DE891E00E9412
:1021E000850FB1C0822F807F09F046C0751314C0DF
:1021F000341312C0611110C02F702061209392011E
:102200000E942D108DE891E00E94850F809192012F
:10221000D80115968C932EC0CD2819F15F3F11F48B
:102220004F3FF9F0F62E61111CC080915B012091A7
:102230005C0136E0821709F45AC090E0389FF00143
:10224000399FF00D1124E35AFE4F7181571306C0D8
:102250007081471303C07281711103C001968770AA
:10226000E9CFF62E662309F427C18091920181609F
:1022700080939201F12C20C1751308C0341306C05D
:10228000611104C080919201D801C3C04D875E875F
:102290008D859E856A8B0E94E80F6A898823E1F10B
:1022A0006623D1F120919201822F82958F7090E068
:1022B000029774F080918D0190918E0198878F83A1
:1022C0001986DB86CA862C87CE0107960E94850F69
:1022D00086E0F801ADE8B1E001900D928A95E1F752
:1022E0000E943B100E942D10FF24F394E5C04D87FF
:1022F0005E878D859E850E943815292F22952F7027
:1023000030E0223031050CF0CBC09F7009F0C5C021
:10231000805E883008F4D0C0C8010E94850FE4CFE9
:10232000C816D90608F453C0F601E81BF90BCF0113
:102330008837910508F450C0F12C7C2DD98AC88AC1
:1023400089890E94ED0FEDE8F1E086E0DF011D9242
:102350008A95E9F70E942D10AFC0751314C034138D
:1023600012C0611110C080919201F8018583C801EB
:102370000E94850F86E0EDE8F1E0DF011D928A956D
:10238000E9F7FE2C99C04D875E878D859E856A8B07
:102390000E94E80F6A89882309F4BECF662309F4F6
:1023A000BBCF20919201822F82958F7090E002978F
:1023B0000CF48ECF80918D0190918E019A83898348
:1023C0001B82DD82CC822E83CE0101967FCF809549
:1023D00090958C0D9D1DACCFF62E662309F49CCFF5
:1023E00075132EC034132CC02091920120FD1FC004
:1023F000822F82958F70D9F0D80115962C9315975E
:102400008F3049F08F5F982F9295907F822F8F7039
:10241000892B15968C93C8010E94850F86E0F801E0
:10242000ADE8B1E001900D928A95E1F793CF86E097
:10243000F801ADE8B1E001900D928A95E1F73CC05A
:102440004D875E878D859E850E94E80F811140CF64
:1024500080919201816080939201C8010E94850F52
:102460002BC0662309F458CF4D875E878D859E85E6
:102470000E94E80FF82E882309F44ECF86E0F80179
:10248000ADE8B1E001900D928A95E1F78DE891E019
:102490000E94C80B0E943B105DCF811139CF0CC048
:1024A000243031050CF038CF9F7009F431CFF8019A
:1024B0009581907F09F02CCF8F2D62960FB6F894FE
:1024C000DEBF0FBECDBFDF91CF911F910F91FF9067
:1024D000EF90DF90CF9008951F93CF93DF93CDB708
:1024E000DEB72C970FB6F894DEBF0FBECDBF4F837B
:1024F000588769877A878B879C87CE0107960E94C9
:102500009610882369F08F8198852A853B85232B37
:10251000F1F19F3F09F063C08F3F09F060C037C001
:1025200086E0FE013796DE01119601900D928A95A4
:10253000E1F76F817885EA85FB85309741F17F3F30
:1025400011F46F3F21F120915C0130E0C901019647
:102550008770992740915B0150E08417950709F433
:1025600047C069837A83FD83EC8396E0929FD00114
:10257000939FB00D1124A35ABE4FFE0131960190D6
:102580000D929A95E1F780935C010E940C1016E081
:1025900080915B0190915C018917C1F1189FC00186
:1025A0001124835A9E4F0E949610882379F1E0915E
:1025B0005B011E9FF0011124E35AFE4F40815181BF
:1025C00062817381848195810E94FC0F80915B01FF
:1025D00090E001968770992780935B01D9CF4F8156
:1025E000588569857A858B859C850E94FC0FCFCFA5
:1025F0000E94C20F10925C0110925B01EDE8F1E0C5
:1026000086E0DF011D928A95E9F7C1CF2C960FB6BF
:10261000F894DEBF0FBECDBFDF91CF911F9108951B
:10262000EF92FF920F931F93CF93DF938C01892B2F
:1026300009F46CC0F12CEE24E394E8012196F80132
:102640008491843740F4843008F051C0813081F0A7
:10265000823019F15BC0853709F444C0A8F19CE7CA
:10266000980F903708F052C08F770E94E50C41C058
:102670000E5F1F4FFE01C49180E28C0F883048F43A
:10268000C7708E2D01C0880FCA95EAF70E949A156F
:1026900014C08C2F0E94CE0B2DC00E5F1F4FFE0169
:1026A000C49180E28C0F883058F4C7708E2D01C021
:1026B000880FCA95EAF70E94A0150E94C3151AC098
:1026C0008C2F0E94E50C16C00E5F1F4FFE01C491B7
:1026D000CC2381F08FE99FE00197F1F700C0000063
:1026E000C150F6CF0E5F1F4FFE01F49003C00E9451
:1026F000CE0B8E018F2D882309F49FCFEFE9FFE0E9
:102700003197F1F700C000008150F5CFDF91CF91F4
:102710001F910F91FF90EF90089508950C948D13E1
:102720000E948E136093C4017093C5018093C6010B
:102730009093C7010C94AC0F08950C9490130F93D1
:102740001F930091C4011091C5012091C6013091E1
:10275000C701602B712B822B932B1F910F910C942F
:1027600090130F931F930091C4011091C501209104
:10277000C6013091C70160237123822393231F91E7
:102780000F910C9490130F931F930091C40110911B
:10279000C5012091C6013091C701602771278227AA
:1027A00093271F910F910C94901308950C94D513B7
:1027B0000E94D6136093C0017093C1018093C2013F
:1027C0009093C3010C94AC0F60E070E0CB010C94CB
:1027D000D8130F931F9341E050E060E070E08A014E
:1027E0009B0104C0000F111F221F331F8A95D2F7CF
:1027F000C901B8011F910F910C94D8130F931F9327
:1028000041E050E060E070E004C0440F551F661FD7
:10281000771F8A95D2F78091C0019091C101A09154
:10282000C201B091C3018A019B01082B192B2A2BED
:102830003B2BC901B8011F910F910C94D8130F9332
:102840001F9341E050E060E070E004C0440F551F6A
:10285000661F771F8A95D2F74095509560957095C1
:102860008091C0019091C101A091C201B091C301BA
:102870008A019B01082319232A233B23C901B8019C
:102880001F910F910C94D8130F931F9341E050E0C8
:1028900060E070E004C0440F551F661F771F8A95E3
:1028A000D2F78091C0019091C101A091C201B09175
:1028B000C3018A019B01082719272A273B27C90141
:1028C000B8011F910F910C94D8130F931F9300918F
:1028D000C0011091C1012091C2013091C301602B50
:1028E000712B822B932B1F910F910C94D8130F9364
:1028F0001F930091C0011091C1012091C20130913C
:10290000C30160237123822393231F910F910C94A1
:10291000D8130F931F930091C0011091C101209112
:10292000C2013091C30160277127822793271F912D
:102930000F910C94D813089527E0929F800D1124D5
:10294000A82FA695A695A695877051E001C0550FB2
:102950008A95EAF785E0A89FD001112420E030E0B5
:1029600070E0F901EA0FFB1FED56FE4F4081CB01ED
:10297000022E02C0969587950A94E2F781709927F6
:10298000819584278523842780832F5F3F4F2530BF
:10299000310539F7089527E0929F800D1124682FA3
:1029A000669566956695982F977085E0689FB0014B
:1029B000112440E050E080E0FA01E60FF71FED56E9
:1029C000FE4F208130E0092E02C0369527950A94EB
:1029D000E2F721703327042E01C0220F0A94EAF790
:1029E000822B4F5F5F4F4530510531F70895BF92FD
:1029F000CF92DF92EF92FF920F931F93CF93DF93CB
:102A00008C01C090C401D090C501E090C601F09047
:102A1000C7018091C0019091C101A091C201B09104
:102A2000C301C82AD92AEA2AFB2ACFE1D0E0D7017C
:102A3000C6010C2E04C0B695A795979587950A9464
:102A4000D2F780FF07C0BC2EB8018C2F0E9445042E
:102A5000019719F4219758F7B12C8B2DDF91CF9165
:102A60001F910F91FF90EF90DF90CF90BF9008954E
:102A7000CF93DF93EC010E94F714BE010E9445043E
:102A8000DF91CF9108951F93CF93DF93EB01909146
:102A90005A01992321F0CB010E94381513C08823D5
:102AA00049F0CB010E94F714182F682FCE010E9425
:102AB0009C1404C0CB010E94CB14182FBE01812F9F
:102AC0000E944504DF91CF911F9108958091C80124
:102AD00085958595859508958091C801877008959D
:102AE0009091C801977081E009F480E00895809189
:102AF000D40108959091D401892B8093D401089535
:102B000080959091D40189238093D40108951092E7
:102B1000D40108959091D301892B8093D301089516
:102B200080959091D30189238093D30108951092C9
:102B3000D30108959091D201892B8093D2010895F9
:102B400080959091D20189238093D20108951092AB
:102B5000D20108958091C901089508950C94AD158E
:102B60009091C901981721F08093C9010C94AE157A
:102B700008958091C901882329F01092C90180E04D
:102B80000C94AE150895E0910901F0910A0180912D
:102B9000D4018083E0910901F0910A019081809134
:102BA000D301892B8083E0910901F0910A01908182
:102BB0008091D201892B80838091C901882381F083
:102BC000E0910901F0910A019081892B8083809125
:102BD000090190910A010E94CE1681110E94B91537
:102BE0008091090190910A010C94A10A08950C9416
:102BF000F61598E0899F90011124262B2093C80197
:102C00000E94FE138091C8018595859585950C9449
:102C1000F7151092C80180E00C94F7152091C801B7
:102C2000809582238093C801982F977079F430E0C3
:102C3000482F082E000C550B2417350739F08595C1
:102C4000859585950E941F140C940916089580E0BF
:102C500090E00E94101F21E08C3E9E4F09F020E082
:102C6000822F089582E090E00C94081F83E090E0AA
:102C70000C94081FCF9384E090E00E94081FC82F97
:102C800081E290E00E94081F2C2F30E0A901582B10
:102C9000CA01CF910895CF93C92F682F84E090E0A7
:102CA0000E94161F6C2F81E290E0CF910C94161FAA
:102CB000AB01BC018FE090E00C94281FAB01BC017C
:102CC00083E190E00C94281F60E070E0CB010C944D
:102CD0005E1660E070E0CB010E9458160C946416FA
:102CE0006CEE7EEF80E090E00E94341F60E082E0B6
:102CF00090E00E94161F60E083E090E00E94161FA3
:102D00001092C4011092C5011092C6011092C70121
:102D100060E084E090E00E94161F60E081E290E0B5
:102D20000E94161F60E085E090E00E94161F60E0A0
:102D300086E090E00E94161F6FEF87E090E00E940F
:102D4000161F40E050E0BA0188E090E00E94281F82
:102D500060E08DE090E00E94161F40E050E0BA0174
:102D600088E190E00E94281F60E087E190E00E94E7
:102D7000161F40E050E0BA018CE190E00E94281F4D
:102D800060E080E290E00E94161F0C9469160C949B
:102D90007016682F8EE090E00C94161FFC0132969E
:102DA00097E080E0915029F021912223D9F38F5FA1
:102DB000F9CF08959C01FC0132969FEF80E041918C
:102DC000461789F09F3F19F4411101C0982F8F5F7A
:102DD0008630A9F79F3F39F0F901E90FF11D97FD02
:102DE000FA95628308950895FC0132960896208131
:102DF000261301C010823196E817F907C1F708952C
:102E00000C94DA160C94F416029626E0FC0111924A
:102E10002A95E9F7089508950C940B170E940C1752
:102E20008091EE01843049F11092D60120E488E1CE
:102E300090E00FB6F894A895809360000FBE2093A1
:102E4000600080E00E945F020E940C1783B7817FC0
:102E5000846083BF83B7816083BF7894889583B78C
:102E60008E7F83BF0FB6F894A8958091600088612B
:102E700080936000109260000FBE08950895089539
:102E8000CF930E943E170E94BB070E943F17C0E0ED
:102E90008C2F0E94D606811104C0CF5FCA30C1F7C3
:102EA00001C081E0CF91089508950C9454170E94B9
:102EB000C20F0E94950A0E945F020C9455171F9240
:102EC0000F920FB60F9211248F939F93AF93BF93DE
:102ED0008091D601811113C08091E4019091E501A8
:102EE000A091E601B091E7014196A11DB11D80932B
:102EF000E4019093E501A093E601B093E701BF914F
:102F0000AF919F918F910F900FBE0F901F901895CA
:102F100082E084BD93E095BD9AEF97BD80936E00EB
:102F200008952FB7F8948091E4019091E501A09164
:102F3000E601B091E7012FBF0895CF92DF92EF92A3
:102F4000FF920F931F932FB7F8944091E401509193
:102F5000E5016091E6017091E7012FBF6A017B01F5
:102F6000EE24FF248C0120E030E0C016D106E206FA
:102F7000F30610F4415051099A01281B390BC9017D
:102F80001F910F91FF90EF90DF90CF90089578946C
:102F90001F920F920FB60F9211248F939F93AF93AE
:102FA000BF938091E4019091E501A091E601B09179
:102FB000E7010196A11DB11D8093E4019093E50105
:102FC000A093E601B093E701BF91AF919F918F91DC
:102FD0000F900FBE0F901F90189587E797E790937B
:102FE0000108809300089AE088E10FB6F894A8954C
:102FF000809360000FBE90936000FFCF0E94271661
:10300000811102C00E94C7160E9432168093D5011A
:103010000E943A169093E9018093E8010E943616C7
:10302000682F70E080E090E00C949D138091DF01A8
:10303000089508950F931F93CF93DF9300D01F92AD
:10304000CDB7DEB78C010E94491A823011F084306E
:1030500021F584E089831B830A8382E08093E90061
:103060008FEF9091E800815095FD06C095ED9A95FF
:10307000F1F700008111F5CF8091E80085FF0DC0C8
:1030800040E050E063E070E0CE0101960E94661AD5
:103090008091E8008E778093E8000F900F900F905A
:1030A000DF91CF911F910F910895CF93DF9300D0BF
:1030B0001F92CDB7DEB72091EE01243031F523E029
:1030C0002983805891099B838A8382E08093E90059
:1030D0008FEF9091E800815095FD06C095ED9A958F
:1030E000F1F700008111F5CF8091E80085FF0DC058
:1030F00040E050E063E070E0CE0101960E94661A65
:103100008091E8008E778093E8000F900F900F90E9
:10311000DF91CF910895CF93DF93EC010E94491A7C
:10312000823011F0843039F581E08093E9008FEF2F
:103130009091E800815095FD06C095ED9A95F1F7C4
:1031400000008111F5CF8091E80085FF14C040E0B8
:1031500050E068E070E0CE010E94661A8091E800BD
:103160008E778093E80088E0FE01A7EDB1E0019042
:103170000D928A95E1F7DF91CF9108958091ED014D
:10318000811109C00E94FB1B0E94581C8091E20023
:1031900084608093E20008951092ED0108950895EF
:1031A00008950C94571742E061EC81E00E94751B72
:1031B00042E261EC82E00C94751B8091F001833057
:1031C00009F460C030F4813071F0823009F499C0A4
:1031D00008958A3009F485C08B3009F46BC08930BA
:1031E00009F0A7C020C08091EF01813A09F0A1C089
:1031F0008091E800877F8093E8008091F3019091AF
:10320000F401892B21F468E087ED91E003C060E0D0
:1032100080E090E070E00E94B11A8091E8008B7726
:103220008093E80008958091EF01813209F081C018
:103230008091F3019091F401029708F07AC0809197
:10324000E800877F8093E8008091E80082FD05C058
:103250008091EE018111F8CF6CC02091F300809134
:10326000F20090E0922B029729F48091F1008B7F7D
:10327000813021F48091F1008093DF018091E8009A
:103280008B7753C08091EF01813A09F052C0809151
:10329000F3019091F401892B09F04BC08091E80073
:1032A000877F8093E8008091E80080FFFCCF8091C9
:1032B000150136C08091EF018132D9F58091F3017B
:1032C0009091F401892BA9F58091E800877F809384
:1032D000E8000E94AA1B8091F101809315010C94D3
:1032E000C20F8091EF01813221F58091E800877F44
:1032F0008093E8000E94AA1B8091F2018093E00174
:1033000008958091EF01813AA1F48091E800877FD0
:103310008093E8008091E80080FFFCCF8091E0017D
:103320008093F1008091E8008E778093E8000C9400
:10333000AA1B089584B7877F84BF0FB6F894A89519
:1033400080916000886180936000109260000FBEE1
:1033500080E880936100109261000E94E60A0E945A
:10336000FB1B0E94581C8091E20084608093E20065
:1033700078940E94E71E0E94EC0A8BE091E00E9484
:10338000900A8091EE01853069F40E940E178091B9
:10339000EC018823B1F30E944017882391F30E9427
:1033A000501AEFCF0E94F40AECCF0C94D719292FB2
:1033B000332723303105C9F064F42130310581F021
:1033C0002230310509F04CC08BE390E02CEC32E068
:1033D0004BC02132310521F12232310589F140C043
:1033E00082E190E027E033E03FC0992781309105EA
:1033F00071F02CF4892BA1F5E8ECF2E00DC08230DD
:10340000910541F0039761F5E0EAF2E005C0EAEBCF
:10341000F2E002C0E6EAF2E0849190E09F0124C06D
:103420006115710541F061307105D1F489E090E0DA
:1034300027EF32E019C089E090E02EED32E014C0B1
:103440006115710541F06130710551F486E390E03A
:1034500029E133E009C080E490E02FE433E004C0C8
:1034600080E090E020E030E0FA013183208308958D
:103470000895CF93C82F0E94381AC093E101CF91CD
:1034800008958091EE01843011F081E0089582E08A
:1034900008958091E101811102C00C94411A0895B0
:1034A00080E189BD82E189BD09B400FEFDCF809134
:1034B000D8008F7D8093D8008091E0008260809357
:1034C000E0008091E00081FDFCCF0895CF92DF9273
:1034D000EF92FF920F931F93CF93DF93EC018B0139
:1034E0006A010E94C91B811133C0C114D10439F093
:1034F000F60180819181081B190BC80FD91FE12C9F
:10350000F12C0115110519F18091E80085FD16C017
:103510008091E8008E778093E800C114D10449F0CF
:10352000F60180819181E80EF91EF182E08285E04A
:103530000FC00E94C91B882321F30AC08991809380
:10354000F10001501109FFEFEF1AFF0ADACF80E016
:10355000DF91CF911F910F91FF90EF90DF90CF906F
:1035600008952091F5013091F6012617370748F0AC
:103570006115710539F42091E8002E772093E80059
:1035800001C0B90140E061157105A9F12091EE017A
:10359000222309F443C0253009F442C02091E800F9
:1035A00023FD40C02091E80022FD32C02091E800B8
:1035B00020FFE9CF4091F3002091F20030E0342B5E
:1035C000FC01CF016115710559F02830310540F437
:1035D00081918093F100615071092F5F3F4FF1CFCE
:1035E00041E02830310509F040E02091E8002E77D5
:1035F0002093E800C8CF4111C9CF0AC08091EE01E5
:10360000882361F0853061F08091E80083FD0AC075
:103610008091E80082FFF2CF80E0089582E0089573
:1036200083E0089581E008952091F5013091F6013D
:103630002617370748F06115710539F42091E80025
:103640002E772093E80001C0B901FC0120E061154C
:10365000710591F18091EE01882309F440C0853015
:1036600009F43FC08091E80083FD3DC08091E800EF
:1036700082FD2FC08091E80080FFE9CF2091F30008
:103680008091F20090E0922B6115710559F088301D
:10369000910540F424912093F10031966150710915
:1036A0000196F2CF21E0089709F020E08091E80030
:1036B0008E778093E800CBCF2111CCCF0AC08091C8
:1036C000EE01882361F0853061F08091E80083FD90
:1036D0000AC08091E80082FFF2CF80E0089582E086
:1036E000089583E0089581E00895982F973058F564
:1036F0009093E900981739F07091EC002091ED005B
:103700005091F00003C0242F762F50E021FF19C004
:103710003091EB003E7F3093EB003091ED003D7F28
:103720003093ED003091EB0031603093EB007093FB
:10373000EC002093ED005093F0002091EE0027FF65
:1037400007C09F5FD3CF8F708093E90081E0089519
:1037500080E008958091EF0187FF11C08091E8001B
:1037600082FD05C08091EE018111F8CF11C08091DA
:10377000E8008B770BC08091EE01882349F080919F
:10378000E80080FFF8CF8091E8008E778093E80012
:1037900008952091E4003091E50095E64091EC0019
:1037A000842F817040FF22C08091E80080FD1CC002
:1037B0008091EE01882391F0853091F08091EB00AB
:1037C00085FD10C04091E4005091E5004217530779
:1037D00029F39A01915011F784E0089582E0089549
:1037E00083E0089581E0089580E008954091E80025
:1037F00042FFDECF08950E94691C0E94711CE0EE1A
:10380000F0E0808181608083E8EDF0E080818F7757
:10381000808319BCA7EDB0E08C918E7F8C93808162
:103820008F7E80831092ED0108950F931F93CF93A5
:10383000DF930E94691C0E94711CC8EDD0E0888152
:103840008F77888388818068888388818F7D88834B
:1038500019BC1092EE011092EA011092EC01109244
:10386000EB0100EE10E0F80180818B7F808388817E
:103870008160888342E060E080E00E94751BE1EE99
:10388000F0E080818E7F8083E2EEF0E080818160D5
:103890008083808188608083F80180818E7F80832F
:1038A000888180618883DF91CF911F910F91089566
:1038B000E8EDF0E080818F7E8083E7EDF0E08081AD
:1038C0008160808384E082BF81E08093ED010C946D
:1038D000151CE8EDF0E080818E7F80831092E2007D
:1038E00008951092DA001092E10008951F920F924D
:1038F0000FB60F9211242F933F934F935F936F93C3
:103900007F938F939F93AF93BF93EF93FF93809198
:10391000E10082FF0BC08091E20082FF07C080912E
:10392000E1008B7F8093E1000E94E61E8091DA0027
:1039300080FF1FC08091D80080FF1BC08091DA00FB
:103940008E7F8093DA008091D90080FF0DC080E1E6
:1039500089BD82E189BD09B400FEFDCF81E080937D
:10396000EE010E94BE1805C019BC1092EE010E9423
:10397000CC188091E10080FF19C08091E20080FFA7
:1039800015C08091E2008E7F8093E2008091E2007A
:1039900080618093E2008091D80080628093D8009B
:1039A00019BC85E08093EE010E94D0188091E1005F
:1039B00084FF30C08091E20084FF2CC080E189BD8B
:1039C00082E189BD09B400FEFDCF8091D8008F7DD2
:1039D0008093D8008091E1008F7E8093E1008091F8
:1039E000E2008F7E8093E2008091E200816080930C
:1039F000E2008091EA01882311F084E007C0809101
:103A0000E30087FD02C081E001C083E08093EE0106
:103A10000E94D1188091E10083FF29C08091E200CB
:103A200083FF25C08091E100877F8093E10082E0E1
:103A30008093EE011092EA018091E1008E7F8093E5
:103A4000E1008091E2008E7F8093E2008091E200AD
:103A500080618093E20042E060E080E00E94751B9C
:103A60008091F00088608093F0000E94CF18FF9151
:103A7000EF91BF91AF919F918F917F916F915F91E6
:103A80004F913F912F910F900FBE0F901F9018955F
:103A90001F920F920FB60F9211242F933F934F93C3
:103AA0005F936F937F938F939F93AF93BF93CF93C6
:103AB000DF93EF93FF93C091E900CF708091EC000A
:103AC000D82FD17080FDD0E81092E9008091F000ED
:103AD000877F8093F00078940E948C1D1092E900FB
:103AE0008091F00088608093F000CD2BCF70C09360
:103AF000E900FF91EF91DF91CF91BF91AF919F913D
:103B00008F917F916F915F914F913F912F910F9086
:103B10000FBE0F901F9018951F93CF93DF93CDB7D3
:103B2000DEB7AA970FB6F894DEBF0FBECDBFEFEE9B
:103B3000F1E088E08E0F9091F10091938E13FBCF0E
:103B40000E94DD188091E80083FF28C18091EF0179
:103B50009091F001492F50E04A30510508F01EC104
:103B6000FA01EC58FF4F0C94021F803821F0823884
:103B700009F014C108C08091EB019091EC019923E8
:103B800089F082600FC08091F3018F70873008F058
:103B900005C18093E9008091EB0085FB882780F9BF
:103BA0001092E9009091E800977F9093E80080934D
:103BB000F1001092F100D0C0282F2D7F09F0EEC047
:103BC000882319F0823061F0E9C08091F1018130E1
:103BD00009F0E4C0933009F080E08093EC012EC03E
:103BE0008091F10181112AC08091F3018F702FEF34
:103BF000280F263008F0D2C08093E9002091EB0016
:103C000020FF1CC0933021F48091EB00806214C02F
:103C10009091EB0090619093EB0021E030E0A901DE
:103C200002C0440F551F8A95E2F74093EA001092B4
:103C3000EA008091EB0088608093EB001092E9002D
:103C40008091E800877F8093E8000E94AA1BA6C0AD
:103C50008111A4C01091F1011F778091E300807859
:103C6000812B8093E3008091E800877F8093E800B8
:103C70000E94AA1B8091E80080FFFCCF8091E300A6
:103C800080688093E300111102C082E001C083E0EC
:103C90008093EE0183C08058823008F07FC080910D
:103CA000F1019091F2018C3D53E0950779F583E0A5
:103CB0008A838AE289834FB7F894DE01139620E065
:103CC0003EE051E2E32FF0E050935700E49120FFF3
:103CD00003C0E295EF703F5FEF708E2F90E0EA3007
:103CE00010F0C79601C0C0968D939D932F5F24312D
:103CF00049F74FBF8091E800877F8093E8006AE230
:103D000070E0CE0101960E94B11A15C06091F301D6
:103D10007091F401AE014F5F5F4F0E94D519BC0155
:103D2000892BE1F19091E800977F9093E8008981D9
:103D30009A810E94141B8091E8008B778093E800A1
:103D40002DC0803859F58091E800877F8093E80086
:103D50008091EA018093F1008091E8008E7773CF23
:103D600081111CC09091F1019230C0F48091E80063
:103D7000877F8093E8009093EA010E94AA1B8091BC
:103D8000EA01811106C08091E30087FD02C081E055
:103D900001C084E08093EE010E94D3188091E80076
:103DA00083FF0AC08091E800877F8093E8008091BC
:103DB000EB0080628093EB00AA960FB6F894DEBF0A
:103DC0000FBECDBFDF91CF911F9108950895CF937E
:103DD0008091EE018823A1F0C091E900CF7090910D
:103DE000EC00892F817090FD80E8C82B1092E900CB
:103DF0008091E80083FD0E948C1DCF70C093E90084
:103E0000CF910895EE0FFF1F0590F491E02D0994D6
:103E1000F999FECF92BD81BDF89A992780B5089592
:103E2000A8E1B0E042E050E00C943C1F262FF99945
:103E3000FECF92BD81BDF89A019700B4021639F009
:103E40001FBA20BD0FB6F894FA9AF99A0FBE0895DA
:103E50000396272F0E94171F0E94161F252F0E94CE
:103E6000171F242F0C94171F0196272F0E94171F2E
:103E70000C94161FDC01CB01FC01F999FECF06C0A2
:103E8000F2BDE1BDF89A319600B40D924150504018
:083E9000B8F70895F894FFCF84
:103E9800013D01003E01053E01CA0116188B1819A3
:103EA8001855181A1801F4F5F6F73133329497C6F5
:083EB800343500000000000099
:00000001FF
